:100000004FC000006AC0000068C0000066C0000069
:1000100064C0000062C0000060C000005EC000005C
:100020005CC000005AC0000058C0000056C000006C
:1000300054C00000D4C0000050C000004EC00000FA
:100040004CC000004AC0000048C0000046C000008C
:1000500044C0000042C0000040C000003EC000009C
:100060003CC000003AC0000038C0000036C00000AC
:1000700034C0000032C0000030C000002EC00000BC
:100080002CC000002AC0000028C000009F009B0078
:10009000970093008F008B00870082007C00770020
:1000A00011241FBECFEFD0E4DEBFCDBF11E0A0E032
:1000B000B1E0EEE2F9E000E00BBF02C007900D9264
:1000C000AA30B107D9F721E0AAE0B1E001C01D9242
:1000D000A034B207E1F74FD128C492CF90E0FC01E1
:1000E0003197EA30F10578F5EA5BFF4F15C48FEFE1
:1000F00088B98BB989E008958FEF88B980E88BB90A
:1001000088E008958FEF88B91BB887E008958EEFD7
:1001100088B986E008958CEF88B985E0089588EF66
:1001200088B984E0089580EF88B983E0089580EE6F
:1001300088B982E0089580EC88B981E0089580E86C
:1001400088B98AE008958AE00895823041F08330CA
:1001500019F0813051F406C094EA92B909C090EBCD
:1001600092B906C09DEE92B903C09FE392B9811186
:100170008150089560930001709301018093020102
:100180009093030160933B0170933C0180933D0188
:1001900090933E0108958BE0809381008DE790E07D
:1001A000909389008093880082E080936F00109282
:1001B0008500109284008091000190910101A0912E
:1001C0000201B091030180933B0190933C01A09305
:1001D0003D01B0933E018FB780688FBF08951F9295
:1001E0000F920FB60F9211248F939F93AF93BF93EB
:1001F00080913B0190913C01A0913D01B0913E0165
:100200000197A109B10980933B0190933C01A09310
:100210003D01B0933E01892B8A2B8B2B99F481E011
:1002200080933F018091000190910101A091020112
:10023000B091030180933B0190933C01A0933D0159
:10024000B0933E01BF91AF919F918F910F900FBEE0
:100250000F901F901895CF92DF92EF92FF926B0153
:100260007C019B01AC016091370170913801809154
:10027000390190913A01D7D1882309F440C020E098
:1002800030E0A901C701B601CED1811104C085B506
:10029000887085BD03C085B5836085BD28E539E3D9
:1002A00044E75FE3C701B601BED188231CF48FEF9A
:1002B00087BD1CC020E034E244EF56E4C701B6011C
:1002C000C4D2181614F417BC11C020E030E040E08E
:1002D00053E4C701B601BDD29B01AC0160E074E2FA
:1002E00084EF9AE4A4D10BD2615067BD16BCC092D2
:1002F0003701D0923801E0923901F0923A01FF9033
:10030000EF90DF90CF90089580913F01811109C057
:1003100060E070E08CE595E49EDF80913F018823EA
:10032000B9F310923F0180913F01811109C060E053
:1003300070E98AE095E48FDF80913F018823B9F36B
:1003400010923F0180913F01811108C060E070E090
:10035000CB0181DF80913F018823C1F310923F01DF
:1003600081E0089589E484BD8BE085BD60E070E0A4
:10037000CB0171CF08952F923F924F925F926F926F
:100380007F928F929F92AF92BF92CF92DF92EF9225
:10039000FF920F931F93CF93DF9300D000D000D034
:1003A000CDB7DEB786E0E4E0F1E0DE011196019022
:1003B0000D928A95E1F78FEF81B912B89DEF94B94C
:1003C00092E095B987B918B88AB91BB813B11470FF
:1003D000C9DFE1DE68EC70E080E090E0CBDE809188
:1003E0003F018823E1F310923F011999FECFE8E223
:1003F000F1E010828FE090E0A0E0B0E08183928392
:10040000A383B48385839683A783B08784E891E030
:10041000928781871386148615861686E9E1F1E0B6
:1004200083E080838CE291E0A0E0B0E0818392835E
:10043000A383B48385839683A783B08785EA90E0FE
:10044000928781871386148615861686EAE0F1E086
:100450008AE080838EE190E0A0E0B0E08183928327
:10046000A383B48385839683A783B0878EE690E0C9
:100470009287818713861486158616861111B8C057
:10048000412C512C32010F2EF8E28F2EF1E09F2EDD
:10049000F02D5E0123E0A20EB11C1F0188E048167A
:1004A00082E058066104710471F485E090E0A0E0F8
:1004B000B0E0F40181839283A383B4838583968320
:1004C000A783B08714C0F6E74F16F2E05F06610419
:1004D000710469F481E090E0A0E0B0E0F401818370
:1004E0009283A383B48385839683A783B0877E0199
:1004F000F3E0EF1AF108D70114960D911C911597AE
:10050000F801458156816781708581819281A3813F
:10051000B481481759076A077B07E0F1808101849D
:10052000F285E02D90E00995D8018C93F8011582B1
:100530001682178210868185928584589140F1F445
:10054000D7011296ED91FC91139785819681A78131
:10055000B0850396A11DB11D85839683A783B087BF
:10056000D701ED91FC9185819681A781B085039695
:10057000A11DB11D85839683A783B087F80183856C
:100580009485A585B6850196A11DB11D83879487A5
:10059000A587B687F80185819681A781B0850196E8
:1005A000A11DB11D85839683A783B087F2E0EF0E6E
:1005B000F11CEA14FB0409F09ECF80913F018823CF
:1005C000E1F310923F012FEF421A520A620A720AB7
:1005D000F10183859485A585B6854F97A105B10561
:1005E00029F483E085B918B81BB802C01A9B56CF0E
:1005F00080E090E026960FB6F894DEBF0FBECDBF28
:10060000DF91CF911F910F91FF90EF90DF90CF90EE
:10061000BF90AF909F908F907F906F905F904F9022
:100620003F902F9008959CD008F481E008950CD05D
:10063000D2C0CAD040F0C1D030F021F45F3F19F0F1
:10064000B3C05111FCC0B6C0D7D098F39923C9F3F9
:100650005523B1F3951B550BBB27AA2762177307C8
:10066000840738F09F5F5F4F220F331F441FAA1F7C
:10067000A9F333D00E2E3AF0E0E830D0915050403C
:10068000E695001CCAF729D0FE2F27D0660F771FEA
:10069000881FBB1F261737074807AB07B0E809F0CC
:1006A000BB0B802DBF01FF2793585F4F2AF09E3F61
:1006B000510568F079C0C3C05F3FECF3983EDCF3AE
:1006C000869577956795B795F7959F5FC9F7880FDA
:1006D000911D9695879597F90895E1E0660F771F2C
:1006E000881FBB1F621773078407BA0720F0621BBD
:1006F000730B840BBA0BEE1F88F7E095089504D0B6
:100700006894B1119CC008957FD088F09F5790F0F5
:10071000B92F9927B751A0F0D1F0660F771F881F26
:10072000991F1AF0BA95C9F712C0B13081F086D07E
:10073000B1E0089583C0672F782F8827B85F39F01C
:10074000B93FCCF3869577956795B395D9F73EF485
:1007500090958095709561957F4F8F4F9F4F08952D
:10076000990F0008550FAA0BE0E8FEEF16161706C2
:10077000E807F907C0F012161306E407F50798F02A
:10078000621B730B840B950B39F40A2661F0232B43
:10079000242B252B21F408950A2609F4A140A695BF
:1007A0008FEF811D811D089597F99F6780E870E0A4
:1007B00060E008959FEF80EC089500240A941616D7
:1007C000170618060906089500240A94121613063F
:1007D000140605060895092E0394000C11F48823CD
:1007E00052F0BB0F40F4BF2B11F460FF04C06F5FE9
:1007F0007F4F8F4F9F4F089557FD9058440F551FBF
:1008000059F05F3F71F04795880F97FB991F61F092
:100810009F3F79F087950895121613061406551F09
:10082000F2CF4695F1DF08C0161617061806991F75
:10083000F1CF86957105610508940895E894BB276A
:1008400066277727CB0197F908958ADF08F48FEFA1
:1008500008950BD0C0CFB1DF28F0B6DF18F0952394
:1008600009F0A2CFA7CF1124EACFC6DFA0F3959F4E
:10087000D1F3950F50E0551F629FF001729FBB2787
:10088000F00DB11D639FAA27F00DB11DAA1F649F33
:100890006627B00DA11D661F829F2227B00DA11DE6
:1008A000621F739FB00DA11D621F839FA00D611D6C
:1008B000221F749F3327A00D611D231F849F600D8D
:1008C000211D822F762F6A2F11249F5750408AF0C6
:1008D000E1F088234AF0EE0FFF1FBB1F661F771F52
:1008E000881F91505040A9F79E3F510570F05CCF92
:1008F000A6CF5F3FECF3983EDCF38695779567953E
:10090000B795F795E7959F5FC1F7FE2B880F911D6F
:100910009695879597F90895EE0FFF1F0024001C08
:0E0920000BBE0790F691E02D0994F894FFCFDE
:0A092E000100000019010A01280170
:00000001FF
