S02B00006B747375633030325F637573746F6D6C61625F4C4344437573746F6D4368617250757A7A6C652E7399
S113000045C0000060C000005EC000005CC000008D
S11300105AC0000058C0000056C0000054C0000080
S113002052C0000050C000004EC000004CC0000090
S11300304AC0000049C0000046C0000044C000009F
S113004042C0000040C000003EC000003CC00000B0
S11300503AC0000038C0000036C0000034C00000C0
S113006032C0000030C000002EC000002CC00000D0
S11300702AC0000028C0000026C0000024C00000E0
S113008022C0000020C000001EC0000011241FBEBA
S1130090CFEFD0E4DEBFCDBF11E0A0E0B1E0E0EBF4
S11300A0F2E000E00BBF02C007900D92A632B10748
S11300B0D9F721E0A6E2B1E001C01D92AB32B2074C
S11300C0E1F7AFD0F3C09CCF1F920F920FB60F92FF
S11300D011248F939F93AF93BF93809126019091A6
S11300E02701A0912801B09129010197A109B10923
S11300F08093260190932701A0932801B0932901AE
S1130100892B8A2B8B2B99F481E080932A0180918F
S1130110000190910101A0910201B091030180932B
S1130120260190932701A0932801B0932901BF9140
S1130130AF919F918F910F900FBE0F901F901895C4
S1130140181619065CF00895000021503109E1F7F2
S11301504F5F5F4F8417950719F4089540E050E00E
S113016027E033E0F1CF10988BB9119A0000119871
S113017082E090E0E5CF089581E0F5CF08958131E4
S113018018F48158F0CF08958155EDCF089584E691
S113019090E0D6DF88E3E7DF86E0E5DF8FE0E3DFAA
S11301A081E0E1DF8AE090E0CBCF0895109A8BB92B
S11301B0119A0000119881E090E0C2CF08950F9346
S11301C01F93CF93DF93182FEB01D6DF8881882309
S11301D051F001E0010F812FD2DF8991E7DF102F69
S11301E088818111F6CFDF91CF911F910F910895EE
S11301F00F931F93CF93DF93883070F48B01880F94
S1130200880F880F805CAFDFE801085F1F4F89917A
S1130210CDDFC017D107D9F7DF91CF911F910F918F
S11302200895CF93DF93CDB7DEB760970FB6F894F8
S1130230DEBF0FBECDBF8FEF8AB91BB883E081B993
S11302408CEF82B9A4DF88E0E4E0F1E0DE011196EE
S113025001900D928A95E1F788E0ECE0F1E0DE018F
S1130260199601900D928A95E1F7BE016F5F7F4F59
S113027080E0BEDFBE01675F7F4F81E0B9DF64E1EC
S113028071E081E09CDF81E17ADF80E08FDF82E151
S113029076DF81E08BDF80E090E060960FB6F89423
S11302A0DEBF0FBECDBFDF91CF910895F894FFCF8D
S11302B001000000000A15110A040000040E1F04C6
S11302C004040400435553544F4D204348415220E5
S10902D0544553540000E4
S9030000FC
