S02400006B747375633030325F637573746F6D4C61625F4C454450757A7A6C652E737265637D
S11300005AC0000077C0000075C0000073C0000033
S113001071C000006FC000006DC000006BC0000024
S113002069C0000067C0000065C0000063C0000034
S113003061C0000095C000005DC000005BC000000E
S113004059C0000057C0000055C0000053C0000054
S113005051C000004FC000004DC000004BC0000064
S113006049C0000047C0000045C0000043C0000074
S113007041C000003FC000003DC000003BC0000084
S113008039C0000037C0000035C0000067086C08A4
S1130090710876087B08800885088A088F08940808
S11300A099089E08A308A808AD08B208B708BC08B8
S11300B0C108C608CB0811241FBECFEFD0E4DEBFB1
S11300C0CDBF12E0A0E0B1E0EEE4F3E100E00BBF4D
S11300D002C007900D92AA3DB107D9F722E0AAED1C
S11300E0B2E001C01D92A43EB207E1F70E94D90814
S11300F00C94A50985CF6093240170932501809306
S11301002601909327016093DF027093E0028093AD
S1130110E1029093E20208958BE0809381008DE7E1
S113012090E0909389008093880082E080936F0030
S113013010928500109284008091240190912501F1
S1130140A0912601B09127018093DF029093E002F1
S1130150A093E102B093E2028FB780688FBF089545
S11301601F920F920FB60F9211248F939F93AF9308
S1130170BF938091DF029091E002A091E102B091DF
S1130180E2020197A109B1098093DF029093E00292
S1130190A093E102B093E202892B8A2B8B2B99F472
S11301A081E08093E3028091240190912501A09144
S11301B02601B09127018093DF029093E002A0937F
S11301C0E102B093E202BF91AF919F918F910F90A2
S11301D00FBE0F901F901895181619065CF008951D
S11301E0000021503109E1F74F5F5F4F84179507F5
S11301F019F4089540E050E027E033E0F1CF2A9865
S11302008BB92B9A00002B9882E090E0E5CF0895FB
S113021081E0F5CF0895813118F48158F0CF089525
S11302208155EDCF089584E690E0D6DF88E3E7DFDB
S113023086E0E5DF8FE0E3DF81E0E1DF8AE090E064
S1130240CBCF08952A9A8BB92B9A00002B9881E082
S113025090E0C2CF08950F931F93CF93DF93182F8D
S1130260EB01D6DF8881882351F001E0010F812F53
S1130270D2DF8991E7DF102F88818111F6CFDF91DA
S1130280CF911F910F9108950F931F93CF93DF93F5
S1130290883070F48B01880F880F880F805CAFDF83
S11302A0E801085F1F4F8991CDDFC017D107D9F747
S11302B0DF91CF911F910F9108958FE788B90000C6
S11302C0339B29C0329B29C0319B29C0309B29C054
S11302D08FEB88B90000339B26C0329B26C0319B2C
S11302E026C0309B26C08FED88B90000339B23C005
S11302F0329B23C0319B23C0309B23C08FEE88B92F
S11303000000339B20C0329B20C0319B20C0309B17
S113031020C080E0089581E3089582E3089583E393
S1130320089581E4089584E3089585E3089586E3B8
S1130330089582E4089587E3089588E3089589E39E
S1130340089583E408958AE2089580E3089583E29A
S1130350089584E4089580912301833009F128F4F9
S1130360813041F0823089F03CC0843021F1853005
S113037069F137C08091DE02863019F41092DE02F2
S113038032C08F5F8093DE022EC08091DD02863002
S113039019F41092DD0227C08F5F8093DD0223C021
S11303A08091DC02863019F41092DC021CC08F5F4D
S11303B08093DC0218C08091DB02863019F410921D
S11303C0DB0211C08F5F8093DB020DC08091DA02E3
S11303D0863019F41092DA0206C08F5F8093DA0235
S11303E002C086E018DF8091230115DF809123018C
S11303F08330D9F028F4813041F0823071F02DC07F
S11304008430D9F0853009F128C0E091DE02F0E0B3
S1130410E45EFE4F808116DF27C0E091DD02F0E04C
S1130420EB5EFE4F80810EDF1FC0E091DC02F0E046
S1130430E25FFE4F808106DF17C0E091DB02F0E04F
S1130440E95FFE4F8081FEDE0FC0E091DA02F0E04A
S1130450E050FF4F8081F6DE07C0E091DE02F0E05D
S1130460E45EFE4F8081EEDE86E0D5CE0895809175
S11304702301833019F128F4813041F0823091F066
S113048041C0843039F1853089F13CC08091DE026D
S1130490811104C086E08093DE0236C081508093CF
S11304A0DE0232C08091DD02811104C086E08093B7
S11304B0DD022AC081508093DD0226C08091DC02D7
S11304C0811104C086E08093DC021EC081508093B9
S11304D0DC021AC08091DB02811104C086E08093A3
S11304E0DB0212C081508093DB020EC08091DA02DD
S11304F0811104C086E08093DA0206C081508093A3
S1130500DA0202C086E087DE8091230184DE8091D6
S113051023018330D9F028F4813041F0823071F026
S11305202DC08430D9F0853009F128C0E091DE0275
S1130530F0E0E45EFE4F808185DE27C0E091DD02BD
S1130540F0E0EB5EFE4F80817DDE1FC0E091DC02B7
S1130550F0E0E25FFE4F808175DE17C0E091DB02C0
S1130560F0E0E95FFE4F80816DDE0FC0E091DA02BA
S1130570F0E0E050FF4F808165DE07C0E091DE02CD
S1130580F0E0E45EFE4F80815DDE86E044CE0895B7
S113059080912301853021F481E080932301089523
S11305A08F5F80932301089580912301813021F48A
S11305B085E0809323010895815080932301089559
S11305C0CF93DF93CDB7DEB7A8970FB6F894DEBF0D
S11305D00FBECDBF88E0E8E2F1E0DE0111960190A4
S11305E00D928A95E1F788E0E0E3F1E0DE011996E7
S11305F001900D928A95E1F788E0E8E3F1E0DE01ED
S1130600519601900D928A95E1F788E0E0E4F1E0DB
S1130610DE01599601900D928A95E1F788E0E8E4AD
S1130620F1E0DE01919601900D928A95E1F7BE0109
S11306306F5F7F4F81E028DEBE01675F7F4F82E0FE
S113064023DEBE016F5E7F4F83E01EDEBE01675E68
S11306507F4F84E019DEBE016F5D7F4F85E014DEBD
S1130660A8960FB6F894DEBF0FBECDBFDF91CF9131
S11306700895CF93DF93CDB7DEB7C054D1090FB639
S1130680F894DEBF0FBECDBF88E0E0E5F1E0DE0107
S1130690119601900D928A95E1F788E0E8E5F1E082
S11306A0DE01199601900D928A95E1F788E0E0E465
S11306B0F1E0DE01519601900D928A95E1F788E010
S11306C0E8E4F1E0DE01599601900D928A95E1F794
S11306D088E0E0E6F1E0DE01919601900D928A95C2
S11306E0E1F788E0E8E6F1E0DE01999601900D92E9
S11306F08A95E1F788E0E0E7F1E0DE01D196019028
S11307000D928A95E1F788E0E8E7F1E0DE01D996F9
S113071001900D928A95E1F7BE016F5F7F4F80E0F3
S1130720B3DDBE01675F7F4F81E0AEDDBE016F5E6A
S11307307F4F82E0A9DDBE01675E7F4F83E0A4DDC9
S1130740BE016F5D7F4F84E09FDDBE01675D7F4F1B
S113075085E09ADDBE016F5C7F4F86E095DDBE01CA
S1130760675C7F4F87E090DDC05CDF4F0FB6F89485
S1130770DEBF0FBECDBFDF91CF910895CF93DF933E
S1130780CDB7DEB7C054D1090FB6F894DEBF0FBEA3
S1130790CDBF88E0E0E5F1E0DE01119601900D9215
S11307A08A95E1F788E0E8E3F1E0DE01199601902B
S11307B00D928A95E1F788E0E0E8F1E0DE015196D8
S11307C001900D928A95E1F788E0E8E4F1E0DE011A
S11307D0599601900D928A95E1F788E0E8E8F1E0F6
S11307E0DE01919601900D928A95E1F788E0E0E9A7
S11307F0F1E0DE01999601900D928A95E1F788E087
S1130800E8E9F1E0DE01D19601900D928A95E1F7D5
S113081088E0E0EAF1E0DE01D99601900D928A9534
S1130820E1F7BE016F5F7F4F80E02EDDBE01675FA1
S11308307F4F81E029DDBE016F5E7F4F82E024DDC2
S1130840BE01675E7F4F83E01FDDBE016F5D7F4F9A
S113085084E01ADDBE01675D7F4F85E015DDBE01D2
S11308606F5C7F4F86E010DDBE01675C7F4F87E0E1
S11308700BDDC05CDF4F0FB6F894DEBF0FBECDBFFB
S1130880DF91CF910895CF93DF93CDB7DEB7A897CB
S11308900FB6F894DEBF0FBECDBF88E0E0E5F1E00F
S11308A0DE01119601900D928A95E1F788E0E8E364
S11308B0F1E0DE01199601900D928A95E1F788E046
S11308C0E0E4F1E0DE01519601900D928A95E1F7A2
S11308D088E0E8EAF1E0DE01599601900D928A95EC
S11308E0E1F788E0E0EBF1E0DE01919601900D92F2
S11308F08A95E1F7BE016F5F7F4F80E0C5DCBE01E2
S1130900675F7F4F81E0C0DCBE016F5E7F4F82E096
S1130910BBDCBE01675E7F4F83E0B6DCBE016F5D6A
S11309207F4F84E0B1DCA8960FB6F894DEBF0FBE0B
S1130930CDBFDF91CF910895CF93DF93CDB7DEB7CD
S1130940A8970FB6F894DEBF0FBECDBF88E0E8EBE2
S1130950F1E0DE01119601900D928A95E1F788E0AD
S1130960E0ECF1E0DE01199601900D928A95E1F731
S113097088E0E8ECF1E0DE01519601900D928A9551
S1130980E1F788E0E0EDF1E0DE01599601900D9287
S11309908A95E1F788E0E8EDF1E0DE0191960190B7
S11309A00D928A95E1F7BE016F5F7F4F81E06CDCA9
S11309B0BE01675F7F4F82E067DCBE016F5E7F4FE1
S11309C083E062DCBE01675E7F4F84E05DDCBE01D4
S11309D06F5D7F4F85E058DCA8960FB6F894DEBFB4
S11309E00FBECDBFDF91CF910895A6DF66EF71E012
S11309F081E031DC8CE00FDC83E024DC8DE00BDC77
S1130A0084E020DC8EE007DC85E01CDC8CE103DC88
S1130A1081E018DC8DE1FFDB82E014CC0895F8DB83
S1130A20CFDD6EE072E081E016DC8DE1F4DB82E084
S1130A3009DC8EE1F0DB83E005DC8FE1ECDB84E0B4
S1130A4001DC80E2E8DB85E0FDDB199946C035DC9A
S1130A50823479F018F4813431F011C0833459F0C0
S1130A60843459F00CC077DC8091E302882351F080
S1130A7013C0FDDCF9CF8CDDF7CF96DDF5CF86E032
S1130A80CADBF2CF80912301805FC5DB81E0DADB32
S1130A908091E3028823B1F380912301805FBBDB63
S1130AA080E2D0DB1092E3028091DE02843069F6AA
S1130AB08091DD02843009F0C8CF8091DC0281117D
S1130AC0C4CF8091DB02863009F0BFCF8091DA0277
S1130AD0823009F0BACF81E0089580E00895CF9381
S1130AE097DBC7DD8DE197DB80E0ACDB8EE193DB48
S1130AF081E0A8DB8FE18FDB82E0A4DB80E28BDB8B
S1130B0083E0A0DBC0E019998CC18DE184DB80E037
S1130B1099DB8EE180DB81E095DB8FE17CDB82E099
S1130B2091DB80E278DB83E08DDB81E074DB85E0C0
S1130B3089DBC3DB823371F018F4813331F01AC0DE
S1130B40833369F0843381F015C081E164DB84E090
S1130B5079DB75C181E15FDB85E074DB70C181E124
S1130B605ADB86E06FDB6BC181E155DB87E06ADB32
S1130B7094E003C081E04FDB13C08091E30288233B
S1130B80E1F31092E3029150C1F794E00DC080911B
S1130B90E3028823E1F31092E3029150C1F738DBBA
S1130BA0C33009F0B0CF3FC18091E3028823E1F361
S1130BB09150D1F71092E302199937C18DE12BDBE3
S1130BC080E040DB8EE127DB81E03CDB8FE123DB4F
S1130BD082E038DB80E21FDB83E034DB81E01BDB77
S1130BE085E030DB81E117DB87E02CDB82E013DB7F
S1130BF084E028DB62DB823371F018F4813331F056
S1130C001AC0833371F0843389F015C082E103DBA9
S1130C1084E018DB1BC182E1FEDA85E013DB94E09B
S1130C200DC082E1F8DA86E00DDB10C182E1F3DA6F
S1130C3087E008DB0BC181E0EEDA13C08091E302A8
S1130C408823E1F31092E3029150C1F794E00DC0C0
S1130C508091E3028823E1F31092E3029150C1F7FB
S1130C60D7DAC33009F0A8CFE2C08091E302882329
S1130C70E1F39150D1F71092E3021999DAC08DE1B2
S1130C80CADA80E0DFDA8EE1C6DA81E0DBDA8FE10E
S1130C90C2DA82E0D7DA80E2BEDA83E0D3DA81E036
S1130CA0BADA85E0CFDA81E1B6DA87E0CBDA82E03E
S1130CB0B2DA84E0C7DA82E1AEDA85E0C3DA83E04F
S1130CC0AADA87E0BFDAF9DA823371F018F48133F3
S1130CD031F01AC0833369F0843389F015C083E19D
S1130CE09ADA84E0AFDAB9C083E195DA85E0AADA6A
S1130CF0B4C083E190DA86E0A5DA84E008C083E139
S1130D008ADA87E09FDAA9C081E085DA13C090917E
S1130D10E3029923E1F31092E3028150C1F784E0E6
S1130D200DC08091E3028823E1F31092E302915015
S1130D30C1F76EDAC33009F0A0CF7DC09091E30211
S1130D409923E1F38150D1F71092E302199975C008
S1130D508DE161DA80E076DA8EE15DDA81E072DAE3
S1130D608FE159DA82E06EDA80E255DA83E06ADAFA
S1130D7081E051DA85E066DA81E14DDA87E062DA12
S1130D8082E049DA84E05EDA82E145DA85E05ADA23
S1130D9083E041DA87E056DA83E13DDA86E052DA2D
S1130DA084E039DA86E04EDA88DA823379F018F4AE
S1130DB0813331F01AC0833371F0843389F015C064
S1130DC084E129DA84E03EDA84E012C084E123DAA3
S1130DD085E038DA49C084E11EDA86E033DA44C0BB
S1130DE084E119DA87E02EDA3FC081E014DA14C016
S1130DF09091E3029923E1F31092E3028150C1F749
S1130E0081E038C08091E3028823E1F31092E30289
S1130E109150C1F7CF5FFCD9C33009F097CF80E080
S1130E2029C080E027C080E025C080E023C080E0A6
S1130E3021C080E01FC080E01DC080E01BC064E1D1
S1130E4072E081E008DACF5F94E0A1CE64E172E061
S1130E5081E001DACF5F94E0FBCE64E172E081E0EF
S1130E60FAD9CF5F94E05DCF64E172E081E0F3D919
S1130E7094E0C8CFCF910895CF93DF93C9D97EDC96
S1130E808DE1C9D980E0DED98EE1C5D981E0DAD916
S1130E908FE1C1D982E0D6D980E2BDD983E0D2D92D
S1130EA081E0B9D984E0CED982E0B5D985E0CAD948
S1130EB083E0B1D986E0C6D984E0ADD987E0C2D950
S1130EC0D3E0C1E0199915C0F8D9882329F08333F8
S1130ED011F08C2F01C08D2F9091E3029923E1F33F
S1130EE01092E302882371F391E0833019F090E0CB
S1130EF001C090E0892FDF91CF910895BF92CF92E6
S1130F00DF92EF92FF920F931F93CF93DF93CDB7AE
S1130F10DEB766970FB6F894DEBF0FBECDBF86E18D
S1130F20E0EEF1E0DE01119601900D928A95E1F771
S1130F306FD9A9DC80E16FD984E084D981E06BD9D1
S1130F408FE480D98DE167D98FE47CD96894EE244D
S1130F50E4F8F12C10E004E00F2EF6E0BF2EF02DA3
S1130F606894CC24C3F86894DD24D1F8A6D98433DA
S1130F7009F484C018F4823349F071C0863321F037
S1130F80883309F47DC06BC09B2D01C09D2DE1E029
S1130F90F0E0EC0FFD1FE10FF11D808189136AC0A1
S1130FA08430F9F018F4823039F066C0863071F17B
S1130FB0883009F440C060C06AE172E081E04BD936
S1130FC080E1E81AF1088E2D26D9802F3BD981E0E3
S1130FD022D98FE437D98DE11ED98FE433D91F5F2D
S1130FE03EC06AE172E081E036D981E0E81AF10896
S1130FF08E2D11D9802F26D981E00DD98FE422D9E5
S11310008DE109D98FE41ED91F5F29C06AE172E01E
S113101081E021D98FEFE81AF80A8E2DFCD8802FB1
S113102011D981E0F8D88FE40DD98DE1F4D88FE49B
S113103009D91F5F14C06AE172E081E00CD980E134
S1131040E80EF11C8E2DE7D8802FFCD881E0E3D880
S11310508FE4F8D88DE1DFD88FE4F4D81F5F809156
S1131060E3028823E1F31092E302163109F07ECF04
S113107081E008C080E006C080E004C0902F87CFE4
S11310809C2D85CF66960FB6F894DEBF0FBECDBFFC
S1131090DF91CF911F910F91FF90EF90DF90CF9050
S11310A0BF90089580E090E036D161E0680F80E061
S11310B090E039C1089580E090E02DD190E0853131
S11310C0910508F06DC0FC01EA5BFF4F1BC180E194
S11310D0A2D880E3B7C8089580E19DD881E3B2C85F
S11310E0089580E198D882E3ADC8089580E193D84B
S11310F083E3A8C8089580E18ED884E3A3C8089543
S113110080E189D885E39EC8089580E184D886E388
S113111099C8089580E17FD887E394C8089580E151
S11311207AD888E38FC8089580E175D889E38AC89E
S113113008958FE070D880E385C808958FE06BD858
S113114081E380C808958FE066D882E37BC8089560
S11311508FE061D883E376C808958FE05CD884E398
S113116071C808958FE057D885E36CC808958FE05F
S113117052D886E367C808958FE04DD887E362C8E4
S113118008958FE048D888E35DC808958FE043D878
S113119089E358C808958FE03ED880E353C8089582
S11311A060E080E090E0BFD080E135D880E34AC8B9
S11311B008958FEF81B912B89CE094B993EF95B973
S11311C090EF97B99FE098B98AB91BB80E948C0038
S11311D06CE271E080E090E00E947B0024D88CE017
S11311E00ED803DC1899FECF13D819DC813031F402
S11311F06BE272E030D81899FECF10C0811139C06B
S11312006CE472E081E027D898E08091E3028823BF
S1131210E1F31092E3029150C1F767C00E94080104
S11312205EDC813031F469E672E015D81899FECF9E
S113123013C081110EC06CE472E081E00CD898E018
S11312408091E3028823E1F31092E3029150C1F705
S11312504CC0813009F0C8CF0E9408010DDE8130F6
S113126009F040C06AE872E00E942B011899FECF91
S113127014C081110FC06CE472E081E00E942B0164
S113128098E08091E3028823E1F31092E302915005
S1131290C1F72BC0813009F0A7CF0E9408012EDED0
S11312A0813079F46BEA72E00E942B0198E080911E
S11312B0E3028823E1F31092E3029150C1F7F2DED6
S11312C014C0811191CF6CE472E081E00E942B0183
S11312D098E08091E3028823E1F31092E3029150B5
S11312E0C1F703C0811180CFC6CF0E9408018FEFE0
S11312F082B96AEC72E081E00E942B01DCDE80E0BE
S113130090E00895EE0FFF1F0024001C0BBE079011
S1131310F691E02D0994F999FECF92BD81BDF89A1A
S1131320992780B50895262FF999FECF92BD81BDE6
S1131330F89A019700B4021639F01FBA20BD0FB60F
S1111340F894FA9AF99A0FBE0895F894FFCF24
S113134E424F4C4559484E4E54484149444C454FE2
S113135E415049554E42535548504F41505A4C4BAB
S113136E5351480101000000040E1F00000000004C
S113137E1F1B131B1B111F00000E020E080E000074
S113138E000E020E020E0000000A0A0E02020000F7
S113139E00040C04040E00001F111D1117111F0070
S11313AE00040A150A040000000A1F1F0E040000A0
S11313BE001B1B041B1B000000040E1F1F04000057
S11313CE1F111D111D111F00040404040A1115110F
S11313DE00110E0E041F0E040E04151F1F15040E0D
S11313EE02050A14050A14081F1515111D1D1F00E8
S11313FE00040E1F0E0400000F1B17171B1D0F07F2
S113140E1E1F1F1F1F1F1E1C0000000000000107CF
S113141E000100000C13101C0112010C11000A1122
S113142E0804040204040804040204040804040462
S113143E020404040804507265737320746F202030
S113144E20202020202020446566757365004142CB
S113145E454E45004552524F520020202020202058
S113146E20202020202020202020005354455020CE
S113147E3120434F4D504C45544520507265737383
S113148E20746F2050726F636565640020202020E5
S113149E2A4B41424F4F4D2A20202020202020202D
S11314AE594F55204C4F534500535445502032202C
S11314BE434F4D504C455445205072657373207400
S11314CE6F2050726F63656564005354455020332A
S11314DE20434F4D504C4554452050726573732034
S11314EE746F2050726F63656564004D4F44554CA4
S11314FE455320434F4D504C4554452020424F4DAB
S113150E42204445465553454400424F4D425320D4
S10D151E444546555345443A000085
S9030000FC
